:020000040000FA
:100000000C9469000C9491000C9491000C94910054
:100010000C9491000C9491000C9491000C9491001C
:100020000C9491000C9491000C9491000C9491000C
:100030000C9491000C9491000C9491000C949100FC
:100040000C9443050C9491000C9411050C94EB0452
:100050000C9491000C9491000C9491000C949100DC
:100060000C948D050C949100576169742074696D2E
:10007000652069733A0000000000240027002A0070
:1000800000000000250028002B00000000002300D5
:1000900026002900040404040404040402020202E9
:1000A000020203030303030301020408102040803B
:1000B00001020408102001020408102000000008BA
:1000C000000201000003040700000000000000001F
:1000D000A80611241FBECFEFD8E0DEBFCDBF11E0D0
:1000E000A0E0B1E0E8E8F1E102C005900D92A8328D
:1000F000B107D9F722E0A8E2B1E001C01D92A03615
:10010000B207E1F710E0C9E6D0E004C02197FE0194
:100110000E94BC08C836D107C9F70E941D070C947D
:10012000C2080C94000080915E0290915F028230C0
:10013000910538F0880F991F880F991F059701972F
:10014000F1F70895AF92BF92CF92DF92EF92FF92B4
:100150000F931F93CF93DF936C017B018B01040FEF
:10016000151FEB015E01AE18BF08C017D10759F08B
:100170006991D601ED91FC910190F081E02DC601CD
:100180000995892B79F7C501DF91CF911F910F91C7
:10019000FF90EF90DF90CF90BF90AF900895FC015B
:1001A000538D448D252F30E0842F90E0821B930BDC
:1001B000541710F0CF96089501970895FC01918D82
:1001C000828D981761F0A28DAE0FBF2FB11D5D9685
:1001D0008C91928D9F5F9F73928F90E008958FEF27
:1001E0009FEF0895FC01918D828D981731F0828DDB
:1001F000E80FF11D858D90E008958FEF9FEF089532
:10020000FC01918D228D892F90E0805C9F4F821B95
:1002100091098F739927089586EA91E00E94000161
:1002200021E0892B09F420E0822F089580E090E0FE
:10023000892B29F00E940C0181110C940000089573
:10024000FC01A48DA80FB92FB11DA35ABF4F2C914B
:10025000848D90E001968F739927848FA689B78942
:100260002C93A089B1898C91837080648C93938D39
:10027000848D981306C00288F389E02D80818F7DDC
:1002800080830895EF92FF920F931F93CF93DF9394
:10029000EC0181E0888F9B8D8C8D98131AC0E889C2
:1002A000F989808185FF15C09FB7F894EE89FF8991
:1002B0006083E889F98980818370806480839FBF2F
:1002C00081E090E0DF91CF911F910F91FF90EF902F
:1002D0000895F62E0B8D10E00F5F1F4F0F7311273F
:1002E000E02E8C8D8E110CC00FB607FCFACFE8897A
:1002F000F989808185FFF5CFCE010E942001F1CFE1
:10030000EB8DEC0FFD2FF11DE35AFF4FF0829FB7ED
:10031000F8940B8FEA89FB8980818062CFCFCF93DD
:10032000DF93EC01888D8823B9F0AA89BB89E8891D
:10033000F9898C9185FD03C0808186FD0DC00FB6C3
:1003400007FCF7CF8C9185FFF2CF808185FFEDCF41
:10035000CE010E942001E9CFDF91CF910895833033
:1003600081F028F4813099F08230A9F00895873027
:10037000A9F08830C9F08430B1F4809180008F7D7D
:1003800003C0809180008F7780938000089584B5AA
:100390008F7784BD089584B58F7DFBCF8091B000A9
:1003A0008F778093B00008958091B0008F7DF9CF52
:1003B000CF93DF93282F30E0F901E454FF4F84916D
:1003C000F901E855FF4FD491F901EC56FF4FC49164
:1003D000CC23A1F081110E94AF01EC2FF0E0EE0FD1
:1003E000FF1FE657FF4FA591B491EC91ED2381E0FB
:1003F00090E009F480E0DF91CF91089580E090E0F3
:10040000FACF1F93CF93DF93282F30E0F901E45404
:10041000FF4F8491F901E855FF4FD491F901EC5653
:10042000FF4FC491CC23A9F0162F81110E94AF0178
:10043000EC2FF0E0EE0FFF1FE058FF4FA591B491B5
:100440008FB7F894EC91111108C0D095DE23DC939E
:100450008FBFDF91CF911F910895DE2BF8CFCF93FF
:10046000DF9390E0FC01E855FF4F24918C569F4F9D
:10047000FC0184918823C9F090E0880F991FFC014A
:10048000EA58FF4FA591B491FC01E058FF4FC59188
:10049000D49161110DC09FB7F8948C91209582235F
:1004A0008C938881282328839FBFDF91CF91089563
:1004B000623051F49FB7F8943C91822F809583234A
:1004C0008C93E8812E2BEFCF8FB7F894EC912E2BE5
:1004D0002C938FBFEACFCF93DF93CBE5D2E061E0DF
:1004E00089810E942F020E94930060E088810E940F
:1004F0002F020E94930060E089810E942F02DF9109
:10050000CF910C9493000F931F93CF93DF93D82F29
:10051000C8E061E080915B020E942F020E9493007C
:100520000D2F10E060E0D0FF61E080915C020E943E
:100530002F020E94930060E080915B020E942F02D4
:100540000E94930015950795D02FC15011F761E0D7
:1005500080915B020E942F0260E080915C020E9409
:100560002F020E94930060E080915B020E942F02A4
:100570000E94930080915C020E94D801C82F8111D3
:1005800005C061E080915C020E942F020E949300EE
:1005900061E080915B020E942F020E94930081E043
:1005A000C11101C080E0DF91CF911F910F9108959B
:1005B00061E080915C020E942F020C9493000F93E3
:1005C0001F93CF93DF938C010E94D80280E40E9496
:1005D00083020E946B020E94D80280EC0E94830278
:1005E000E8010C5F1F4F89910E948302C017D10759
:1005F000D1F70E946B020E94D80280915D028F7039
:1006000080580E948302DF91CF911F910F910C942B
:100610006B0220914F01260F3327331F2132310502
:10062000ECF420917301FC0190E080E0243069F04B
:1006300082E00895A0914F012191AC01415D5E4F90
:10064000A40FB52FB11D2C930196861798F38091B6
:100650004F01680F60934F0180E0089581E0089595
:1006600008958FEF9FEF08958FEF9FEF089580918A
:10067000280190E09195819591090895CF93DF939A
:10068000CB01EA01642F0E940903CE01DF91CF91D3
:100690000895CF93DF931F92CDB7DEB7698361E0F2
:1006A000CE0101960E94090381E090E00F90DF9156
:1006B000CF91089590E080E008958F929F92AF923D
:1006C000BF920F931F93CF93DF93CDB7DEB7A19760
:1006D0000FB6F894DEBF0FBECDBF19A2423008F4AA
:1006E0004AE08E010F5D1F4F842E912CB12CA12C5E
:1006F000A50194010E949A08E62FB901CA01EA30C7
:1007000044F5E05DD801EE938D01232B242B252B9E
:1007100079F790E080E0109769F0FD0101900020EA
:10072000E9F73197AF014A1B5B0BBD0186EA91E007
:100730000E94A200A1960FB6F894DEBF0FBECDBFF7
:10074000DF91CF911F910F91BF90AF909F908F90AD
:100750000895E95CD7CFDF92EF92FF920F931F933A
:10076000CF93DF9300D000D0CDB7DEB79B0140E040
:1007700087FF02C0819541E021153105A9F4198256
:100780001A821B828FE38C83CE0101960E94DF02C6
:100790000F900F900F900F90DF91CF911F910F91BD
:1007A000FF90EF90DF900895FE0131967E0193E077
:1007B000E91AF108082F880F110B80E4D82EC9011F
:1007C000B8010E948608582F811109C021153105F2
:1007D00031F41382442361F0D38240E009C08E5F7C
:1007E0009E4FDC018C918383511102C0232B91F326
:1007F0009B013197EE16FF0611F7C6CFBC0197FF9C
:1008000004C066277727681B790B97FD03C08AE031
:100810000C94AB0386EFFCCFCF92DF92EF92FF9266
:100820000F931F93CF93DF93EC012FB7F894409170
:100830009E0150919F016091A0017091A1012FBF75
:100840000C811D812E813F816A017B01C01AD10A72
:10085000E20AF30A088119812A813B81C016D10678
:10086000E206F306D0F14C835D836E837F8308E656
:1008700010E0F8016491662341F086EA91E00E945D
:1008800042010F5F1F4F892BA1F7C880D980EA80F2
:10089000FB804AE0C701B601F7FE0DC06DE286EAB3
:1008A00091E00E94420166277727CB016C197D09F0
:1008B0008E099F094AE00E945D0342E050E064E235
:1008C00071E086EA91E0DF91CF911F910F91FF9047
:1008D000EF90DF90CF900C94A200DF91CF911F9109
:1008E0000F91FF90EF90DF90CF9008951F93CF93DB
:1008F000DF9385ED8093BC0080912B0190912C01BA
:10090000A0912D01B0912E010796A11DB11D23E0EC
:10091000B695A795979587952A95D1F72091BC0014
:1009200024FD03C01092730152C040912B015091DD
:100930002C0160912D0170912E01452B462B472BE8
:1009400069F30097A105B10541F02AE22A95F1F774
:1009500000C00197A109B109E1CF80912A01C1E04E
:10096000C0932901882399F1D091B8001091BA0061
:100970008091BC008A7B8093BC0060E082E10E9491
:10098000010260E083E10E94010210927301C093B2
:1009900075011092740161E082E10E94010261E040
:1009A00083E10E9401028091B9008E7F8093B9009B
:1009B0008091B9008D7F8093B90088E48093B8005E
:1009C00085E48093BC001093BA00D093B800DF9107
:1009D000CF911F9108951F920F920FB60F9211247D
:1009E0002F933F934F935F936F937F938F939F9337
:1009F000AF93BF93EF93FF9386EA91E00E942001AB
:100A0000FF91EF91BF91AF919F918F917F916F91E6
:100A10005F914F913F912F910F900FBE0F901F90BC
:100A200018951F920F920FB60F9211242F938F9348
:100A30009F93EF93FF93E091B601F091B70180810E
:100A4000E091BC01F091BD0182FD1BC090818091BD
:100A5000BF018F5F8F732091C001821741F0E09139
:100A6000BF01F0E0EA55FE4F958F8093BF01FF91E3
:100A7000EF919F918F912F910F900FBE0F901F902C
:100A800018958081F4CF1F920F920FB60F92112408
:100A90002F933F938F939F93AF93BF9380919E012A
:100AA00090919F01A091A001B091A10130919D0171
:100AB00023E0230F2D3758F50196A11DB11D20937A
:100AC0009D0180939E0190939F01A093A001B093FC
:100AD000A1018091990190919A01A0919B01B091FF
:100AE0009C010196A11DB11D8093990190939A01DB
:100AF000A0939B01B0939C01BF91AF919F918F9167
:100B00003F912F910F900FBE0F901F90189526E8E0
:100B1000230F0296A11DB11DD2CF1F920F920FB6C7
:100B20000F9211242F933F934F935F936F937F9373
:100B30008F939F93AF93BF93EF93FF938091B900EF
:100B4000887F803609F44AC0F0F5883209F4A5C0E0
:100B500018F5803109F499C0B8F4882309F4F5C078
:100B6000883009F492C0FF91EF91BF91AF919F91AE
:100B70008F917F916F915F914F913F912F910F9046
:100B80000FBE0F901F901895883109F486C08032EF
:100B900051F78093720114C0803409F49BC040F473
:100BA0008033B9F38833F9F68093720185ECAEC0D7
:100BB000803509F483C0883509F494C0883499F6E7
:100BC0000E947604D0CF883909F48AC038F5883776
:100BD00029F050F4883611F0803729F683E08093AD
:100BE00073011092710155C0883809F479C08039B9
:100BF00019F0803809F0B7CF80917101803208F088
:100C00006FC0E091710181E08E0F8093710180913E
:100C1000BB00F0E0EF5AFE4F80833BC0803B39F0D1
:100C2000D0F4803A09F477C0883A09F09CCF84E088
:100C3000809373011092500110924F01F0E0E0E0B8
:100C4000099580914F0181110FC081E080934F0180
:100C500010922F0109C0803C09F4A8CF883C09F408
:100C6000A5CF883B09F07FCFE091500181E08E0F46
:100C700080935001F0E0E15DFE4F80818093BB00E6
:100C80009091500180914F0129C0809198018093EB
:100C9000BB0085EC8093BC0066CF9091970180915A
:100CA0009601981758F5E091970181E08E0F809397
:100CB0009701F0E0EA58FE4F8081E9CFE09197017B
:100CC00081E08E0F809397018091BB00F0E0EA589D
:100CD000FE4F808390919701809196019817C8F2FA
:100CE00085E8D8CFE091970181E08E0F809397013E
:100CF0008091BB00F0E0EA58FE4F8083809175013F
:100D000081115ECF81E08093740184EA8093BC00FE
:100D10001092730128CF85EC8093BC001092730170
:100D200080917101803230F4E0917101F0E0EF5A6E
:100D3000FE4F10826091710170E081E591E0F0E07A
:100D4000E0E00995109271010ECF1092720138CF38
:100D5000CF93DF93E6EAF1E01382128288EE93E00C
:100D6000A0E0B0E084839583A683B78386E191E019
:100D70009183808385EC90E09587848784EC90E074
:100D80009787868780EC90E0918B808B81EC90E058
:100D9000938B828B82EC90E0958B848B86EC90E039
:100DA000978B868B118E128E138E148ECBE5D2E02C
:100DB00082E188838FE0898384E690E09C838B8343
:100DC00060E082E10E942F0260E089810E942F0290
:100DD00060E088810E94010260E089810E94010236
:100DE000E3E5F2E084EF91E0A0E0B0E0808391835E
:100DF000A283B3831482158216821782EBE4F2E099
:100E00008AE090E0A0E0B0E080839183A283B38386
:100E10001482158216821782E3E4F2E082E390E006
:100E2000A0E0B0E080839183A283B3831482158213
:100E300016821782DF91CF910895CF93DF9300D070
:100E400000D0CDB7DEB7789484B5826084BD84B518
:100E5000816084BD85B5826085BD85B5816085BDB5
:100E600080916E00816080936E001092810080916D
:100E700081008260809381008091810081608093F5
:100E80008100809180008160809380008091B1001A
:100E900084608093B1008091B00081608093B00045
:100EA00080917A00846080937A0080917A008260D9
:100EB00080937A0080917A00816080937A0080919B
:100EC0007A00806880937A001092C10062E089E025
:100ED0000E942F0262E086E00E942F0262E083E01F
:100EE0000E942F02E091B601F091B70182E0808369
:100EF000E091B201F091B3011082E091B401F09160
:100F0000B5018FEC80831092BE01E091BA01F0919F
:100F1000BB0186E08083E091B801F091B901808146
:100F200080618083E091B801F091B901808188608F
:100F30008083E091B801F091B9018081806880835D
:100F4000E091B801F091B90180818F7D808383E0C9
:100F50000E94D8019093A3018093A20161E08CE0EC
:100F60000E942F028BE080935D0219821A821B82FD
:100F70001C82CE0101960E94DF02809100019091B7
:100F800001010E94FE0380E0E82E80E0F82E83E05D
:100F90000E94D8018C019093A5018093A4018091B7
:100FA000A2019091A30108171907B1F086E00E94F1
:100FB000D801209100013091010108171907C9F1EA
:100FC0002D5F3F4F3093010120930001809100017C
:100FD000909101010E94FE0389E00E94D801892BB3
:100FE00009F058C083E592E00E940C0400910001D2
:100FF0001091010110161106D4F561E08CE00E94F9
:10100000010283E592E00E940C0489E00E94D8016D
:10101000892BC9F460E08CE00E94010283E592E034
:101020000E940C0480910001909101010E94FE0336
:10103000AECF235031091216130624F2109201018B
:1010400010920001C3CF83E592E00E940C0489E076
:101050000E94D801892BF1F2B8018AE00E94AB030B
:1010600083E492E00E940C0401501109C3CF60E0B8
:101070008CE00E9401028BE492E00E940C048091BB
:101080000001909101010E94FE0383E492E00E941E
:101090000C047DCF89E00E94D801892B19F580913D
:1010A000000190910101892BE9F483E592E00E940F
:1010B0000C0461E08CE00E94010289E00E94D801EA
:1010C000892B39F460E08CE00E94010283E592E014
:1010D000DECF83E592E00E940C0489E00E94D801F3
:1010E000892B81F38091A4019091A5019093A30194
:1010F0008093A201E114F10409F449CF0E940C018C
:10110000882309F444CF0E94000041CFAA1BBB1BD7
:1011100051E107C0AA1FBB1FA617B70710F0A61BF7
:10112000B70B881F991F5A95A9F780959095BC0118
:10113000CD010895A1E21A2EAA1BBB1BFD010DC013
:10114000AA1FBB1FEE1FFF1FA217B307E407F50777
:1011500020F0A21BB30BE40BF50B661F771F881F53
:10116000991F1A9469F760957095809590959B01E9
:10117000AC01BD01CF010895EE0FFF1F0590F49162
:10118000E02D0994F894FFCF3C003F065B4F666D5D
:101190007D077F6F777C395E797100000000420126
:1011A000A200CF008F010001DE00F2000D0A000056
:107E0000112484B714BE81FFF0D085E080938100F7
:107E100082E08093C00088E18093C10086E0809377
:107E2000C20080E18093C4008EE0C9D0259A86E02C
:107E300020E33CEF91E0309385002093840096BBD3
:107E4000B09BFECF1D9AA8958150A9F7CC24DD24C4
:107E500088248394B5E0AB2EA1E19A2EF3E0BF2EE7
:107E6000A2D0813461F49FD0082FAFD0023811F036
:107E7000013811F484E001C083E08DD089C08234E0
:107E800011F484E103C0853419F485E0A6D080C0E4
:107E9000853579F488D0E82EFF2485D0082F10E0AE
:107EA000102F00270E291F29000F111F8ED06801E7
:107EB0006FC0863521F484E090D080E0DECF843638
:107EC00009F040C070D06FD0082F6DD080E0C81688
:107ED00080E7D80618F4F601B7BEE895C0E0D1E017
:107EE00062D089930C17E1F7F0E0CF16F0E7DF06D8
:107EF00018F0F601B7BEE89568D007B600FCFDCFD4
:107F0000A601A0E0B1E02C9130E011968C91119780
:107F100090E0982F8827822B932B1296FA010C0160
:107F200087BEE89511244E5F5F4FF1E0A038BF0790
:107F300051F7F601A7BEE89507B600FCFDCF97BE46
:107F4000E89526C08437B1F42ED02DD0F82E2BD052
:107F50003CD0F601EF2C8F010F5F1F4F84911BD097
:107F6000EA94F801C1F70894C11CD11CFA94CF0C13
:107F7000D11C0EC0853739F428D08EE10CD085E9AC
:107F80000AD08FE07ACF813511F488E018D01DD067
:107F900080E101D065CF982F8091C00085FFFCCF94
:107FA0009093C60008958091C00087FFFCCF809118
:107FB000C00084FD01C0A8958091C6000895E0E648
:107FC000F0E098E1908380830895EDDF803219F02E
:107FD00088E0F5DFFFCF84E1DECF1F93182FE3DFCA
:107FE0001150E9F7F2DF1F91089580E0E8DFEE27F6
:047FF000FF270994CA
:027FFE00040479
:00000001FF
