:100000000C9462000C948A000C948A000C948A0070
:100010000C948A000C948A000C948A000C948A0038
:100020000C948A000C948A000C948A000C948A0028
:100030000C948A000C948A000C948A000C948A0018
:100040000C94FC050C948A000C94CA050C94A4052D
:100050000C948A000C948A000C948A000C948A00F8
:100060000C9446060C948A0000000000240027002F
:100070002A0000000000250028002B0000000000DE
:1000800023002600290004040404040404040202DA
:100090000202020203030303030301020408102007
:1000A0004080010204081020010204081020000012
:1000B0000008000201000003040700000000000027
:1000C0000000650711241FBECFEFD8E0DEBFCDBF13
:1000D00011E0A0E0B1E0E6EAF3E102C005900D9284
:1000E000AA35B107D9F722E0AAE5B1E001C01D9217
:1000F000A63DB207E1F710E0C2E6D0E004C02197C8
:10010000FE010E94CB09C136D107C9F70E94AD0795
:100110000C94D1090C94000008950895AF92BF92F9
:10012000CF92DF92EF92FF920F931F93CF93DF93C3
:100130006C017B018B01040F151FEB015E01AE18F2
:10014000BF08C017D10759F06991D601ED91FC9114
:100150000190F081E02DC6010995892B79F7C50141
:10016000DF91CF911F910F91FF90EF90DF90CF9093
:10017000BF90AF900895FC01538D448D252F30E042
:10018000842F90E0821B930B541710F0CF960895A4
:1001900001970895FC01918D828D981761F0A28DD1
:1001A000AE0FBF2FB11D5D968C91928D9F5F9F7397
:1001B000928F90E008958FEF9FEF0895FC01918D4D
:1001C000828D981731F0828DE80FF11D858D90E0BA
:1001D00008958FEF9FEF0895FC01918D228D892F57
:1001E00090E0805C9F4F821B91098F73992708953F
:1001F00081E292E00E94EC0021E0892B09F420E0EA
:10020000822F089580E090E0892B29F00E94F80069
:1002100081110C9400000895FC01A48DA80FB92F42
:10022000B11DA35ABF4F2C91848D90E001968F731E
:100230009927848FA689B7892C93A089B1898C913D
:10024000837080648C93938D848D981306C002888C
:10025000F389E02D80818F7D80830895EF92FF9256
:100260000F931F93CF93DF93EC0181E0888F9B8DD9
:100270008C8D98131AC0E889F989808185FF15C093
:100280009FB7F894EE89FF896083E889F9898081B6
:100290008370806480839FBF81E090E0DF91CF9185
:1002A0001F910F91FF90EF900895F62E0B8D10E0A7
:1002B0000F5F1F4F0F731127E02E8C8D8E110CC016
:1002C0000FB607FCFACFE889F989808185FFF5CF61
:1002D000CE010E940C01F1CFEB8DEC0FFD2FF11D33
:1002E000E35AFF4FF0829FB7F8940B8FEA89FB899E
:1002F00080818062CFCFCF93DF93EC01888D8823FC
:10030000B9F0AA89BB89E889F9898C9185FD03C078
:10031000808186FD0DC00FB607FCF7CF8C9185FF5D
:10032000F2CF808185FFEDCFCE010E940C01E9CF95
:10033000DF91CF910895833081F028F4813099F0D6
:100340008230A9F008958730A9F08830C9F0843050
:10035000B1F4809180008F7D03C0809180008F7701
:1003600080938000089584B58F7784BD089584B507
:100370008F7DFBCF8091B0008F778093B000089580
:100380008091B0008F7DF9CFCF93DF93282F30E09D
:10039000F901E255FF4F8491F901E656FF4FD491E0
:1003A000F901EA57FF4FC491CC23A1F081110E94BB
:1003B0009B01EC2FF0E0EE0FFF1FE458FF4FA591DB
:1003C000B491EC91ED2381E090E009F480E0DF91BD
:1003D000CF91089580E090E0FACF1F93CF93DF9301
:1003E000282F30E0F901E255FF4F8491F901E656DC
:1003F000FF4FD491F901EA57FF4FC491CC23A9F0E4
:10040000162F81110E949B01EC2FF0E0EE0FFF1FD1
:10041000EE58FF4FA591B4918FB7F894EC9111115C
:1004200008C0D095DE23DC938FBFDF91CF911F9161
:100430000895DE2BF8CFCF93DF9390E0FC01E656D2
:10044000FF4F24918A579F4FFC0184918823C9F064
:1004500090E0880F991FFC01E859FF4FA591B491D6
:10046000FC01EE58FF4FC591D49161110DC09FB7AB
:10047000F8948C91209582238C938881282328835B
:100480009FBFDF91CF910895623051F49FB7F894E8
:100490003C91822F809583238C93E8812E2BEFCF84
:1004A0008FB7F894EC912E2B2C938FBFEACF3FB7E8
:1004B000F8948091110290911202A0911302B091D0
:1004C000140226B5A89B05C02F3F19F00196A11D67
:1004D000B11D3FBFBA2FA92F982F8827BC01CD018E
:1004E000620F711D811D911D42E0660F771F881FED
:1004F000991F4A95D1F708958F929F92AF92BF921C
:10050000CF92DF92EF92FF924B015C010E94570263
:100510006B017C010E9457026C197D098E099F09AD
:10052000683E734081059105A8F321E0821A910885
:10053000A108B10888EEC80E83E0D81EE11CF11CAA
:1005400081149104A104B10429F7FF90EF90DF908A
:10055000CF90BF90AF909F908F9008950895209175
:100560009B01260F3327331F21323105ECF42091F4
:10057000E401FC0190E080E0243069F082E008951D
:10058000A0919B012191AC0145585E4FA40FB52F5E
:10059000B11D2C930196861798F380919B01680FEB
:1005A00060939B0180E0089581E008951092E4013A
:1005B00081E08093E3011092BE0161E082E10E943C
:1005C000ED0161E083E10E94ED01E9EBF0E0808163
:1005D0008E7F808380818D7F808388E48093B800C4
:1005E00085E48093BC000895CF93DF9391E09093CE
:1005F0007A018823B9F0C091B800D091BA008091F7
:10060000BC008A7B8093BC0060E082E10E94ED0127
:1006100060E083E10E94ED010E94D602D093BA000F
:10062000C093B800DF91CF9108950895E0911C0226
:1006300080911B02E81730F4F0E0E65AFE4F80810B
:1006400090E008958FEF9FEF089590911C028091A4
:100650001B022FEF3FEF981748F4E92FF0E0E65A1E
:10066000FE4F208130E09F5F90931C02C9010895E6
:1006700080911B0290911C02891B990B0895CF92C7
:10068000DF92EF92FF920F931F93CF93DF937C0142
:10069000CB018A012091EA01222389F0EB016B0151
:1006A000C40ED51ECC15DD0569F06991D701ED9119
:1006B000FC910190F081E02DC7010995F3CF642FE3
:1006C0000E94AF02C801DF91CF911F910F91FF905F
:1006D000EF90DF90CF900895CF93DF931F92CDB727
:1006E000DEB769832091EA012223F9F020911902F3
:1006F000203258F021E030E0FC013383228390E087
:1007000080E00F90DF91CF91089580911A02E82F39
:10071000F0E0E551FE4F998190838F5F80931A023C
:100720008093190281E090E0ECCF61E0CE01019668
:100730000E94AF02F7CFCF92DF92EF92FF920F931A
:100740001F93CF93DF93FC01C48121E02093EA0142
:10075000C0930B0210921A02109219028385682B23
:100760008EEB92E00E946C03D0911902D13208F016
:1007700092C00E9457026B017C018091E4018111BB
:1007800065C082E08093E40181E08093E3018FEF14
:100790008093E2011092E101D093E001ABEEB1E071
:1007A000E0ECF1E080E0D81385C01092BF018091A9
:1007B000BF01CC0FC82BC093BF018091BE01813017
:1007C00009F07CC01092BE010E9457026B017C01AF
:1007D0008091BF018093BB008091E6019091E70179
:1007E000A091E801B091E901892B8A2B8B2B99F01C
:1007F0000E9457020091E6011091E7012091E80163
:100800003091E9016C197D098E099F0906171707B8
:1008100028073907E0F18091BC0083FDD9CF85EC32
:100820008093BC000E9457026B017C018091E4011F
:10083000823009F445C08091E2018F3F61F18091DF
:10084000E201803241F18091E20125C08091E60110
:100850009091E701A091E801B091E901892B8A2BE1
:100860008B2B09F48ACF0E9457020091E601109168
:10087000E7012091E8013091E9016C197D098E09A9
:100880009F09061717072807390708F076CF8091C8
:10089000E5010E94F40210921A02109219021092BD
:1008A000EA01DF91CF911F910F91FF90EF90DF90C0
:1008B000CF9008959D9191938F5F75CF85EEB0CFC6
:1008C0008091E6019091E701A091E801B091E901E2
:1008D000892B8A2B8B2B09F4A9CF0E9457020091F8
:1008E000E6011091E7012091E8013091E9016C19CE
:1008F0007D098E099F09061717072807390708F091
:1009000095CFC5CF90E080E008958F929F92AF92EF
:10091000BF920F931F93CF93DF93CDB7DEB7A1970D
:100920000FB6F894DEBF0FBECDBF19A2423008F457
:100930004AE08E010F5D1F4F842E912CB12CA12C0B
:10094000A50194010E94A909E62FB901CA01EA3064
:1009500044F5E05DD801EE938D01232B242B252B4C
:1009600079F790E080E0109769F0FD010190002098
:10097000E9F73197AF014A1B5B0BBD018AEC92E0AE
:100980000E948E00A1960FB6F894DEBF0FBECDBFB9
:10099000DF91CF911F910F91BF90AF909F908F905B
:1009A0000895E95CD7CF0F931F93CF938C01C62F87
:1009B0000E949B036C2F6460C8010E949B036C2FF4
:1009C0006B7FC8010E949B0383EC90E00197F1F7D5
:1009D000CF911F910F9108950F931F93CF93DF93A2
:1009E0008C01D62FC42F607F642B0E94D30480E13A
:1009F000D89FB00111246C2BC801DF91CF911F91BA
:100A00000F910C94D304CF93DF93CDB7DEB7289723
:100A10000FB6F894DEBF0FBECDBF88E0E2E0F1E094
:100A2000DE01119601900D928A95E1F78091D20234
:100A300081111AC08FEF90E0880F991F21E030E0FC
:100A40002C0F3D1F820F931FFC016081606840E006
:100A50008AEC92E028960FB6F894DEBF0FBECDBFA9
:100A6000DF91CF910C94EC0481E0E5CF40E061E0B0
:100A70008AEC92E00E94EC048BE39FE10197F1F78E
:100A8000089541E00E94EC0481E090E00895CF9247
:100A9000DF92EF92FF9297FF18C06B017C0141E05B
:100AA0006DE28AEC92E00E94EC0466277727CB0186
:100AB0006C197D098E099F094AE00E948504019600
:100AC000FF90EF90DF90CF9008954AE0FF90EF9075
:100AD000DF90CF900C94850485ED8093BC008091CD
:100AE000E6019091E701A091E801B091E901079634
:100AF000A11DB11D23E0B695A795979587952A95D9
:100B0000D1F72091BC0024FD03C01092E4010895A8
:100B10004091E6015091E7016091E8017091E9018F
:100B2000452B462B472B69F30097A105B10541F0F2
:100B30002AE22A95F1F700C00197A109B109E1CF96
:100B40008091E5010C94F4021F920F920FB60F9260
:100B500011242F933F934F935F936F937F938F93C2
:100B60009F93AF93BF93EF93FF9381E292E00E9434
:100B70000C01FF91EF91BF91AF919F918F917F9168
:100B80006F915F914F913F912F910F900FBE0F90FA
:100B90001F9018951F920F920FB60F9211242F934A
:100BA0008F939F93EF93FF93E0913102F091320284
:100BB0008081E0913702F091380282FD1BC0908164
:100BC00080913A028F5F8F7320913B02821741F030
:100BD000E0913A02F0E0EF5DFD4F958F80933A028D
:100BE000FF91EF919F918F912F910F900FBE0F90DA
:100BF0001F9018958081F4CF1F920F920FB60F921D
:100C000011242F933F938F939F93AF93BF93809122
:100C10000D0290910E02A0910F02B091100230913E
:100C20000C0223E0230F2D3758F50196A11DB11DAD
:100C300020930C0280930D0290930E02A0930F025A
:100C4000B09310028091110290911202A0911302B0
:100C5000B09114020196A11DB11D809311029093D1
:100C60001202A0931302B0931402BF91AF919F910F
:100C70008F913F912F910F900FBE0F901F9018955D
:100C800026E8230F0296A11DB11DD2CF1F920F920D
:100C90000FB60F9211242F933F934F935F936F934F
:100CA0007F938F939F93AF93BF93EF93FF93809125
:100CB000B900887F803609F44AC0F0F5883209F41B
:100CC000A7C018F5803109F49BC0B8F4882309F453
:100CD000F9C0883009F494C0FF91EF91BF91AF91B2
:100CE0009F918F917F916F915F914F913F912F9144
:100CF0000F900FBE0F901F901895883109F488C08F
:100D0000803251F78093E20114C0803409F49DC011
:100D100040F48033B9F38833F9F68093E20185EC2F
:100D2000B0C0803509F485C0883509F496C0883490
:100D300099F60E946C05D0CF883909F48CC038F53B
:100D4000883729F050F4883611F0803729F683E08F
:100D50008093E4011092BD0157C0883809F47BC02C
:100D6000803919F0803809F0B7CF8091BD01803209
:100D700008F071C0E091BD0181E08E0F8093BD014C
:100D80008091BB00F0E0E356FE4F80833DC0803B86
:100D900039F0E0F4803A09F479C0883A09F09CCF40
:100DA00084E08093E40110929C0110929B01E091F9
:100DB0001702F0911802099580919B0181110FC0D3
:100DC00081E080939B0110927B0109C0803C09F473
:100DD000A6CF883C09F4A3CF883B09F07DCFE091F2
:100DE0009C0181E08E0F80939C01F0E0E558FE4F5E
:100DF00080818093BB0090919C0180919B0129C0D0
:100E00008091BF018093BB0085EC8093BC0064CFD0
:100E10009091E1018091E001981758F5E091E1018E
:100E200081E08E0F8093E101F0E0E054FE4F80817D
:100E3000E9CFE091E10181E08E0F8093E1018091A3
:100E4000BB00F0E0E054FE4F80839091E10180917F
:100E5000E0019817C8F285E8D8CFE091E10181E080
:100E60008E0F8093E1018091BB00F0E0E054FE4FD3
:100E700080838091E30181115CCF81E08093BE018A
:100E800084EA8093BC001092E40126CF85EC809325
:100E9000BC001092E4018091BD01803230F4E091F9
:100EA000BD01F0E0E356FE4F10826091BD0170E09D
:100EB000E0911502F09116028DE991E009951092EA
:100EC000BD010ACF1092E20134CFE1E2F2E01382D9
:100ED000128288EE93E0A0E0B0E084839583A6833D
:100EE000B7832EE031E03183208325EC30E0358775
:100EF000248724EC30E03787268720EC30E0318BE4
:100F0000208B21EC30E0338B228B22EC30E0358BD0
:100F1000248B26EC30E0378B268B118E128E138EAD
:100F2000148EEEEBF2E01382128284839583A68303
:100F3000B78380E291E091838083EAECF2E0138250
:100F4000128282E391E0918380838FE3848380E146
:100F5000818782E0828713860895789484B58260C1
:100F600084BD84B5816084BD85B5826085BD85B54D
:100F7000816085BD80916E00816080936E001092CB
:100F80008100809181008260809381008091810046
:100F900081608093810080918000816080938000D7
:100FA0008091B10084608093B1008091B000816035
:100FB0008093B00080917A00846080937A00809161
:100FC0007A00826080937A0080917A0081608093B9
:100FD0007A0080917A00806880937A001092C10034
:100FE00060E089E00E941B0260E088E00E941B0232
:100FF00062E08AE00E941B0210921C0210921B0207
:1010000010921A02109219020E94D6028CE890E007
:1010100090931802809317028DE890E09093160247
:10102000809315021092CF028091D402823018F082
:1010300098E09093CF028093D20262E370E080E068
:1010400090E00E947C026091D5028AEC92E00E94BE
:101050009B0368EE73E080E090E00E947C0260E316
:101060008AEC92E00E94D304CBE4D6E4CE0101974F
:10107000F1F760E38AEC92E00E94D3042197F1F744
:1010800060E38AEC92E00E94D30483E592E001974A
:10109000F1F760E28AEC92E00E94D3046091CF0203
:1010A000606240E08AEC92E00E94EC0484E080936D
:1010B000D00240E06CE08AEC92E00E94EC040E94D6
:1010C0003605C2E0C093D10240E066E08AEC92E0CF
:1010D0000E94EC0440E062E08AEC92E00E94EC04A2
:1010E0008BE39FE10197F1F788E08093D50260E000
:1010F0008AEC92E00E949B0340E150E06AE371E0D9
:101100008AEC92E00E948E000E9403054DE050E0C0
:101110006BE471E08AEC92E00E948E00E091310273
:10112000F0913202C083E0912D02F0912E021082E4
:10113000E0912F02F09130028FEC808310923902FF
:10114000E0913502F091360286E08083E09133022F
:10115000F0913402808180618083E0913302F091CC
:101160003402808188608083E0913302F091340200
:10117000808180688083E0913302F0913402808125
:101180008F7D808388E00E94C40190931E0280932B
:101190001D0261E087E00E941B0200E010E088E091
:1011A0000E94C401EC019093200280931F02809161
:1011B0001D0290911E02C817D907E9F089E00E942C
:1011C000C4012091000130910101C817D90709F429
:1011D0003FC02D5F3F4F30930101209300010E94DB
:1011E00036056091000170910101072E000C880BFB
:1011F000990B0E9447058AE00E94C401892B09F0DF
:101200006DC0C0910001D09101016E010D2E000C46
:10121000EE08FF081C161D060CF049C061E087E0CF
:101220000E94ED0164EF71E080E090E00E947C029A
:101230008AE00E94C401892BB1F460E087E00E943B
:10124000ED0168EE73E080E090E00E947C02A7CFA1
:1012500023503109121613060CF4BDCF1092010170
:1012600010920001BCCF64EF71E080E090E00E943A
:101270007C028AE00E94C401892BF9F20E943605A3
:101280006091000170910101072E000C880B990BF1
:101290000E9447050E940305C701B6010E94470549
:1012A000219781E0C81AD108E108F108B3CF60E0C6
:1012B00087E00E94ED016AE070E080E090E00E942B
:1012C0007C020E9436056091000170910101072E99
:1012D000000C880B990B0E94470561CF8AE00E94A1
:1012E000C401892B11F58091000190910101892B96
:1012F000E1F461E087E00E94ED0164EF71E080E0DD
:1013000090E00E947C028AE00E94C401892B09F4CB
:1013100094CF64EF71E080E090E00E947C028AE06C
:101320000E94C401892B09F488CF80911F029091FB
:10133000200290931E0280931D020115110509F4ED
:101340002ECF0E94F800882309F429CF0E940000C4
:1013500026CFA1E21A2EAA1BBB1BFD010DC0AA1F9E
:10136000BB1FEE1FFF1FA217B307E407F50720F00E
:10137000A21BB30BE40BF50B661F771F881F991F89
:101380001A9469F760957095809590959B01AC01D2
:10139000BD01CF010895EE0FFF1F0590F491E02DE0
:0613A0000994F894FFCF50
:1013A6003C000000400014005400000000002E0124
:1013B6008E00BB007B01EC00CA00DE0000000000CE
:1013C6006C033F038204150338032503160300004C
:1013D600000041058E008204AE0244656661756CAC
:1013E600743A36305365636F6E64005075736820C7
:0A13F600546F20576F726B2E000039
:00000001FF
